:1000000031C055C054C053C052C0C7C550C04FC006
:100010004EC04DC04CC04BC04AC049C048C0005E35
:10002000BCE2613FDD83C29C7E20A3FD1F41009D99
:1000300023BE46DB65F88C11AF32CA57E974000065
:10004000000037000000000038000000000036000B
:100050000202020202020102040810200103000051
:100060000400E90911241FBECFE5D2E0DEBFCDBFF9
:1000700010E0A0E6B0E0E8E0F9E102C005900D92E2
:10008000A636B107D9F720E0A6E6B0E001C01D9280
:10009000A93CB207E1F710E0C2E3D0E003C021972A
:1000A000FE012ADCC133D107D1F7C1D52BCCA8CFB3
:1000B0003FB7F8948091750090917600A0917700F9
:1000C000B091780022B708B601FE05C02F3F19F0A5
:1000D0000196A11DB11D3FBFBA2FA92F982F8827C8
:1000E000BC01CD01620F711D811D911D42E0660FA3
:1000F000771F881F991F4A95D1F70895CF92DF92F5
:10010000EF92FF92CF93DF936B017C01D1DFEB0184
:10011000C114D104E104F10441F412C081E0C81A11
:10012000D108E108F108C851DC4FC2DF6C1B7D0B20
:10013000683E734068F3C114D104E104F10471F71F
:10014000DF91CF91FF90EF90DF90CF900895DC0189
:1001500080E0615090F09D919827E92FEF70F0E0DA
:10016000E25EFF4F2491E92FE295EF70F0E0E25D4F
:10017000FF4FE491822F8E27ECCF0895DC012C9164
:100180001196ED91FC91F8948181822B818392816B
:10019000322F30959323928387E090E00197F1F717
:1001A00081818323818383E290E00197F1F790813D
:1001B0007894EFECF0E03197F1F7922381E009F4C5
:1001C00080E00895FC0190810180F281E02D292FCB
:1001D000209560FF14C0F8948281822382838181FC
:1001E000892B8183A3E2B0E01197F1F78281982BEC
:1001F0009283789487ED90E00197F1F70895F89451
:100200008281822382838181892B8183AFEFB0E059
:100210001197F1F78281982B928378948FE090E088
:10022000EBCFDF92EF92FF920F931F93CF93DF9369
:10023000EC01D62EE42E08E010E0FF24F39461E0F8
:100240008D2D8F2109F460E0CE01BCDFFF0C015041
:100250001109A9F7E11010C0F894E981FA819181A0
:100260008881809589238183E981FA8192818881BF
:100270008095892382837894DF91CF911F910F918C
:10028000FF90EF90DF900895EF92FF920F931F93EE
:10029000CF93DF938C017B0140E065E5C2DFE7018E
:1002A00088E0E80EF11C699140E0C801BADFCE1584
:1002B000DF05C9F7DF91CF911F910F91FF90EF906C
:1002C0000895FC0190810180F281E02DF8948181F4
:1002D000292F20958223818378943DE743E050E0E5
:1002E000315029F1DA011197F1F780818923C1F3A7
:1002F000F8948281822382838181892B81837894FF
:10030000ABE7B7E01197F1F7F894818182238183FD
:10031000A3E1B1E01197F1F78081982381E009F022
:1003200080E07894E3E6F6E03197F1F7089580E015
:1003300008956F927F928F929F92AF92BF92CF92C9
:10034000DF92EF92FF920F931F93CF93DF938C0175
:10035000EB018091BB009091BC00B3DF8823D9F101
:10036000B8018091BB009091BC008EDF40E06EEB45
:100370008091BB009091BC0054DF7E016E0189E04A
:10038000C80ED11C8E01A090BB00B090BC0088E0CC
:10039000882E912C712C66246394C501EFDE8111A7
:1003A0007628660CE1E08E1A9108B9F7F80171928F
:1003B0008F01CE16DF0639F78091BB009091BC000B
:1003C00080DF813041F4F70181917F01811105C007
:1003D000E017F107C1F790E007C068E0CE01B7DE93
:1003E00091E028852813F7CF892FDF91CF911F91B6
:1003F0000F91FF90EF90DF90CF90BF90AF909F90C4
:100400008F907F906F900895CF93DF93CDB7DEB735
:1004100029970FB6F894DEBF0FBECDBFFC01208137
:10042000203191F0BE016F5F7F4F83DF882331F071
:100430008D818F33A9F020F48F31A1F080E007C0C7
:100440008F3521F08F37D1F78CE001C08BE02996F2
:100450000FB6F894DEBF0FBECDBFDF91CF910895E8
:100460008AE0F5CF89E0F3CF0F931F93CF93DF930B
:10047000CDB7DEB729970FB6F894DEBF0FBECDBF5C
:100480008C01BE016F5F7F4F54DF811105C060E0BA
:1004900070E08EEF92EC3FC02A81422F50E0542F43
:1004A0004427550F550F550F8981282F30E073E0F1
:1004B000220F331F7A95E1F7242B352BF801808129
:1004C0008031D9F468856623C1F070E08F81AB017B
:1004D000481B5109CA019695982F882797958795AB
:1004E000E4D9CB018097B90153E0660F771F5A9585
:1004F000E1F760789C01260F371F213854EE35074D
:1005000034F2B901330F880B990B9FD820E030E00B
:1005100040E05CE34ED929960FB6F894DEBF0FBEDB
:10052000CDBFDF91CF911F910F910895BF92CF92D0
:10053000DF92EF92FF920F931F93CF93DF93EC0123
:10054000B62EC72E8D85811104C0CE01BADE811171
:100550000EC01B861D861C8680E0DF91CF911F9107
:100560000F91FF90EF90DF90CF90BF90089540E003
:1005700060EFCE0156DE01E0E12CD12C11E0CE017E
:10058000FDDDF82ECE01FADD91E0F91218C08130C0
:1005900099F51134F0F2DB86D11002C081E08D872D
:1005A0008B818823B1F22396EB2DFC2DCF01089689
:1005B00029912193E817F907D9F781E0CECFEE2DE5
:1005C000F0E0F8120FC08B851817A0F4DE01AE0F13
:1005D000BF1F13968C91802379F4F12C193008F405
:1005E0001C87D12EEC0FFD1F8381902F90958923BE
:1005F00083830AC08113F1CFFE01EE0DF11D8381CB
:10060000802B8383FF24F3946F2DCE01DBDD1F5FEE
:10061000000F11F4E39401E087E08E1508F0AFCFEE
:10062000B8CFFF920F931F93CF93DF938C01F62ED9
:10063000E091BB00F091BC001386158614861286EB
:100640001186108617821682158214821382C0E0EA
:10065000B8018091BB009091BC0068DFD82F88233F
:1006600029F0FC1629F0CF5FFC1690F7D0E007C008
:1006700067E0C8016CDDF80197818913F4CF8D2FF5
:10068000DF91CF911F910F91FF90089590E0FC01B1
:10069000EA5AFF4F2491FC01E05BFF4FE491EE2307
:1006A00071F0F0E0EE0FFF1FE65BFF4FA591B491F4
:1006B000EC91E22381E090E021F480E0089580E075
:1006C00090E0089587FF09C08F7771F1813071F153
:1006D000823071F1833071F18FEF90E0FC01E45AC8
:1006E000FF4F3491FC01EA5AFF4F2491FC01E05B7B
:1006F000FF4FE491EE23B9F0332329F03130E1F4D8
:100700008AB58F778ABDF0E0EE0FFF1FEC5BFF4FDD
:10071000A591B4918FB7611120C0F894EC91209508
:100720002E232C938FBF089585E0D7CF82E0D5CFBD
:1007300084E0D3CF83E0D1CF323019F48AB58F7DF6
:10074000E1CF333021F480B78F7D80BFDCCF3430F0
:10075000D1F68CB58F7D8CBDD6CFF894EC912E2B35
:10076000E0CFEF92FF920F931F93CF93DF93CDB71C
:10077000DEB729970FB6F894DEBF0FBECDBF8C0150
:10078000FC018081FF24F394803109F463C0BE0131
:100790006F5F7F4FC801CDDDF82E882309F45AC062
:1007A0008D818F3109F456C08FE18D838091BB001C
:1007B0009091BC0086DDB8018091BB009091BC0097
:1007C00063DD40E06EE48091BB009091BC0029DDC8
:1007D00040E06B818091BB009091BC0022DD40E045
:1007E0006C818091BB009091BC001BDDF801808181
:1007F000803139F040E06D818091BB009091BC0068
:1008000010DDE090B8008091BB009091BC00EE201C
:1008100009F455C056DD8823E9F0B8018091BB008A
:100820009091BC0031DD4091B20068E48091BB0042
:100830009091BC00F6DC8091B20081112AC064E185
:1008400070E080E090E05ADC8091BB009091BC00A9
:1008500038DDFE2C89E08093B5008091B9008230AC
:1008600080F110E08091B900181758F58091B5001B
:100870008C3039F1612FCE010196D3DECE01019685
:10088000C3DD9091B500981710F48093B5001F5FF9
:10089000E9CF8091B300882321F060E08091B4001B
:1008A00011DF64E170E080E090E028DC8091B3002B
:1008B000882351F261E08091B40004DFC5CF01DDEF
:1008C000C9CF8F2D29960FB6F894DEBF0FBECDBFCE
:1008D000DF91CF911F910F91FF90EF9008950F93AB
:1008E0001F93CF93DF93CDB7DEB728970FB6F89459
:1008F000DEBF0FBECDBFE091BB00F091BC00138600
:100900001586148612861186108617821682158225
:10091000148213821092B9001092BA0011E0BE0145
:100920006F5F7F4F8091BB009091BC00FFDD8823FB
:1009300009F451C067E0CE01019609DC988589135E
:10094000EECF8091B9008F5F8093B90089818832A2
:1009500029F0D8F5803111F0823209F78091BA0080
:100960008F5F8093BA008091B200811123C0809183
:10097000BB009091BC00A5DCBE016F5F7F4F8091F2
:10098000BB009091BC0080DC40E064EB8091BB0038
:100990009091BC0046DC8091BB009091BC00EEDBE6
:1009A000082F8091BB009091BC008BDC011102C02C
:1009B0001093B200CE01019627DD9091B5009817F3
:1009C00008F0ADCF8093B500AACF8B3339F28234D3
:1009D00009F0A5CFC3CF60E08AEA90E022DEA895B7
:1009E00061E082EA90E01DDEA895EAEAF0E0A2EA82
:1009F000B0E080E021919D91291301C08F5F90E0CC
:100A0000E23BF907B9F7883001F581E08093A10056
:100A10008AEA90E0F9DC893019F08AEA90E0A1DEF8
:100A2000A89582EA90E0F0DC893019F082EA90E043
:100A300098DEA89528960FB6F894DEBF0FBECDBFFE
:100A4000DF91CF911F910F9108951092A100E0CFF7
:100A5000CF93DF9390E0FC01EA5AFF4F2491805B33
:100A60009F4FFC0184918823D1F090E0880F991F5B
:100A7000FC01E25CFF4FA591B491FC01EC5BFF4FE0
:100A8000C591D49161110EC09FB7F8948C91E22F5B
:100A9000E0958E238C932881E223E8839FBFDF912A
:100AA000CF9108958FB7F894EC91E22BEC938FBF20
:100AB000F6CFCF93DF93EC0161E080E0C9DF2097B0
:100AC00029F460E080E0DF91CF91FCCD8AB58068A9
:100AD0008ABDC9BDDF91CF9108950F931F93CF9326
:100AE000DF938C01C0917D00D0917E002097B1F4FE
:100AF00080918500882379F080E690E0DADFC0916C
:100B00007D00D0917E00C530D10508F110927E00A5
:100B100010927D0022C080E390E0F0CFC130D1057B
:100B200081F0C430D105F1F0259749F7A895F80177
:100B3000808191818230910534F101979183808386
:100B4000DECFFC01808191811816190684F0219670
:100B5000D0937E00C0937D00A895DF91CF911F9127
:100B60000F910895FC0180819181892B81F78091FB
:100B70008500882321F080E190E09BDFD5CF60E005
:100B800080E0A0DDD1CF8091990090919A000196EC
:100B900090939A0080939900B2CF1F920F920FB654
:100BA0000F9211242F933F938F939F93AF93BF93F3
:100BB0008091790090917A00A0917B00B0917C00A7
:100BC0003091740023E0230F2D3768F126E8230FBE
:100BD0000296A11DB11D209374008093790090931B
:100BE0007A00A0937B00B0937C0080917500909177
:100BF0007600A0917700B09178000196A11DB11DFB
:100C00008093750090937600A0937700B09378005E
:100C1000BF91AF919F918F913F912F910F900FBEF8
:100C20000F901F9018950196A11DB11DD4CFCF93A1
:100C3000DF93CDB7DEB728970FB6F894DEBF0FBEAF
:100C4000CDBF83E08ABD83BF789489B7826089BFB6
:100C500080E48CBD8FEF8DBD87EC80BF87E886B9BF
:100C60000FB6F894A89581B5886181BD11BC0FBEFF
:100C7000F8948FED81BD7894A89561E081E0E8DE7D
:100C800061E080E0E5DE61E083E0E2DE61E082E0F9
:100C9000DFDE60E082E016DD61E083E013DD60E02E
:100CA00081E010DD2AE030E03A83298364E670E0D9
:100CB00080E090E023DAA89549815A81415051099A
:100CC0005A834983452B91F70ADE80E090E0ACED32
:100CD000B2E480939B0090939C00A0939D00B093FE
:100CE0009E0096E0292E312C85E090E09E838D8336
:100CF000412C512C320149825A826B827C8204E061
:100D000010E08091BB009091BC00DBDA40E06CEC1D
:100D10008091BB009091BC0084DA4091B20064E401
:100D20008091BB009091BC007CDA8091B600882352
:100D300079F18091B700882309F49BC08091B200BB
:100D4000811197C08FB7F894C0907900D0907A0045
:100D5000E0907B00F0907C008FBF8091BB00909171
:100D6000BC000CDA8130A1F02FB7F89480917900A3
:100D700090917A00A0917B00B0917C002FBF8C19DC
:100D80009D09AE09BF098E3E9240A105B10528F329
:100D90008AEA90E069DB6B017C0182EA90E064DB27
:100DA0004B015C018091A10020E030E04EEF52EC5D
:100DB0008111FEC1C701B601A9D3882349F020E003
:100DC00030E04EEF52ECC501B401A0D38111F9C15E
:100DD0008091870090918800853091050CF0DEC1EC
:100DE0000196909388008093870060E083E06ADC3E
:100DF000A4E6B0E0BA83A98381E048DC019709F05A
:100E0000D1C189819A8165E070E03ED58A5F910900
:100E100050DE64E670E080E090E070D9A89529810A
:100E20003A81255031093A8329832233310521F74C
:100E300061E083E047DC1A82198281E027DC0197B8
:100E400009F0B3C189819A8165E070E01DD531DE7A
:100E500064E670E080E090E051D9A89549815A811C
:100E60004B5F5F4F5A8349834233510531F737DD7A
:100E7000A2C2E091B500E9508EEE92E0E33038F482
:100E8000F0E0EE0FFF1FE05AFF4F808191816C016F
:100E9000F12CE12C8091B300882321F060E0809157
:100EA000B40010DCC701B60129D98091B3008823B2
:100EB00009F46ECF61E08091B40004DC69CF109337
:100EC0009A0000939900F6C182E090E090939A0016
:100ED00080939900EFC1A1E0B0E0B0939A00A09395
:100EE0009900E8C18130910509F05BC080918600CE
:100EF000882351F380917D0090917E000097A1F4AA
:100F000080918500882369F080E890E0D2DD8091AF
:100F10007D0090917E00019690937E0080937D00ED
:100F2000C9C180E490E0F2CF88309105B9F4809196
:100F30008500882379F080E190E0BBDD80917D0021
:100F400090917E008B30910530F310927E001092CC
:100F50007D00B0C160E080E0B5DBF0CF0B9771F7AA
:100F6000A8958091830090918400892B81F48091D1
:100F7000810090918200892B29F430929A0020926E
:100F80009900DCCF10939A0000939900D7CF8091FD
:100F9000990090919A00019690939A0080939900FD
:100FA000CDCF8230910581F48091830090918400AF
:100FB0001816190624F483E890E08FDD7BC11093A6
:100FC0009A0000939900C1CF8330910581F48091FC
:100FD0007D0090917E00009761F5A89580917D003D
:100FE00090917E008730910508F0AFCF94CF843088
:100FF0009105B1F480918300909184001816190630
:101000003CF08091810090918200181619061CF422
:1010100081E890E0D2CF30929A002092990095CF4B
:1010200085309105A1F28630910581F48FE790E03B
:10103000C4CF079799F6A8958091990090919A004E
:10104000019690939A0080939900C8CF079709F072
:1010500031C180917D0090917E00009751F4A89558
:1010600080917D0090917E008730910508F453CFE8
:1010700021C10797A9F7A89523E230E03093A0009B
:1010800020939F0010929A001092990080919700EF
:10109000909198000097A9F0019731F520E030E099
:1010A0004CE552E420939B0030939C0040939D00BC
:1010B00050939E0042E050E0509398004093970078
:1010C000F9C080E090E0ACE8B2E480939B0090939C
:1010D0009C00A0939D00B0939E00A1E0B0E0B0936F
:1010E0009800A0939700E6C080919300909194009F
:1010F000A0919500B091960080939B0090939C00E6
:10110000A0939D00B0939E008091910090919200D9
:101110001816190634F0019690939200809391006E
:10112000C9C01092920010929100C4C00197909390
:10113000A00080939F00BEC020E030E04CE852E465
:10114000C701B601E3D187FF23C120E030E04CE8BE
:1011500052E4C501B401DAD187FF1AC120E030E0C2
:101160004CE552E4C701B601D1D187FF11C120E09F
:1011700030E04CE552E4C501B401C8D187FF08C195
:1011800060E004C1019709F012C18092930090922F
:101190009400A0929500B092960009C161E081E0B0
:1011A00091DA23CE89819A8133CE89819A814FCE7B
:1011B000C701B601ABD1882309F40ACE812C912C4A
:1011C0005401A701960169817A818B819C813AD172
:1011D00069837A838B839C83A5019401C301B20147
:1011E00031D12B013C0180919F009091A00000978C
:1011F00009F09CCF8091990090919A00009709F096
:1012000071CE60919B0070919C0080919D009091A7
:101210009E00E8D178876F8377FF09C0AA27BB2794
:10122000A61BB70BB887AF8381E08093860081E06F
:101230002DDA21E0892B09F420E0209385008F81AD
:10124000988564E670E031D39B01709384006093CD
:101250008300CB016CE97FEF17D34F815885480F8E
:10126000591F58874F83CA016AE070E01ED3FB0103
:101270007093820060938100CB0166EF7FEF04D30F
:101280004F815885480F591F5093800040937F002D
:1012900010927E0010927D008091860081111BCEFD
:1012A000232B09F011CEEF2B09F009CE30929A00D2
:1012B00020929900A8958D819E8101979E838D83B0
:1012C000892B09F01ECD20E030E04EEF52ECC70133
:1012D000B6011CD1882309F47BCD20E030E04EEF2D
:1012E00052ECC501B40112D1882309F471CD80916B
:1012F000A10081116DCD20E030E040EA50E4698129
:101300007A818B819C8106D16B017C01C0928D001A
:10131000D0928E00E0928F00F092900020E030E0BA
:1013200040EA50E4C301B201F5D04B015C01809268
:10133000890090928A00A0928B00B0928C0020E0ED
:1013400030E04CED52E4C701B6012FD21816ECF094
:1013500020E030E04CED52E4C501B40126D218166D
:10136000A4F020E030E04CE552E4C701B6011DD204
:1013700018160CF0E1CE20E030E04CE552E4C50157
:10138000B40113D218160CF0D7CE61E081E09AD9DF
:101390008091910090919200009709F0F3CEC09255
:1013A0009300D0929400E0929500F09296001092F3
:1013B00088001092870081E069D9019709F094CCE8
:1013C00082E064D961E0892B09F060E082E07AD99B
:1013D00088CC60E084E03CDBE6E6F0E080E18083FE
:1013E00086E390E0928381831386158614861286A5
:1013F0001186108617821682158214821382A2EB40
:10140000B0E056961C921E92559711961C92119719
:101410001A96FC93EE93199717961C9217971896A5
:101420001C9218971C9289E013968C93139781E075
:1014300014968C93149715968C93159716968C93F7
:1014400008955058BB27AA270ED075C166D130F039
:101450006BD120F031F49F3F11F41EF45BC10EF408
:10146000E095E7FB51C1E92F77D180F3BA17620706
:1014700073078407950718F071F49EF58FC10EF479
:10148000E0950B2EBA2FA02D0B01B90190010C0194
:10149000CA01A0011124FF27591B99F0593F50F4AC
:1014A000503E68F11A16F040A22F232F342F442704
:1014B000585FF3CF469537952795A795F0405395FC
:1014C000C9F77EF41F16BA0B620B730B840BBAF0CC
:1014D0009150A1F0FF0FBB1F661F771F881FC2F737
:1014E0000EC0BA0F621F731F841F48F4879577954B
:1014F0006795B795F7959E3F08F0B3CF9395880F02
:1015000008F09927EE0F979587950895D9D008F49C
:1015100081E008950CD00FC107D140F0FED030F02B
:1015200021F45F3F19F0F0C0511139C1F3C014D15B
:1015300098F39923C9F35523B1F3951B550BBB279A
:10154000AA2762177307840738F09F5F5F4F220F47
:10155000331F441FAA1FA9F333D00E2E3AF0E0E840
:1015600030D091505040E695001CCAF729D0FE2F8C
:1015700027D0660F771F881FBB1F2617370748071E
:10158000AB07B0E809F0BB0B802DBF01FF279358D4
:101590005F4F2AF09E3F510568F0B6C000C15F3F23
:1015A000ECF3983EDCF3869577956795B795F795BC
:1015B0009F5FC9F7880F911D9695879597F90895B4
:1015C000E1E0660F771F881FBB1F62177307840750
:1015D000BA0720F0621B730B840BBA0BEE1F88F75F
:1015E000E095089504D06894B111D9C00895BCD095
:1015F00088F09F5790F0B92F9927B751A0F0D1F0FC
:10160000660F771F881F991F1AF0BA95C9F712C085
:10161000B13081F0C3D0B1E00895C0C0672F782FFA
:101620008827B85F39F0B93FCCF3869577956795F1
:10163000B395D9F73EF490958095709561957F4F5D
:101640008F4F9F4F0895E89409C097FB3EF4909503
:101650008095709561957F4F8F4F9F4F9923A9F08B
:10166000F92F96E9BB279395F6958795779567951A
:10167000B795F111F8CFFAF4BB0F11F460FF1BC05E
:101680006F5F7F4F8F4F9F4F16C0882311F096E9F1
:1016900011C0772321F09EE8872F762F05C066239F
:1016A00071F096E8862F70E060E02AF09A95660F58
:1016B000771F881FDAF7880F9695879597F9089511
:1016C000990F0008550FAA0BE0E8FEEF1616170653
:1016D000E807F907C0F012161306E407F50798F0BB
:1016E000621B730B840B950B39F40A2661F0232BD4
:1016F000242B252B21F408950A2609F4A140A69550
:101700008FEF811D811D089597F99F6780E870E034
:1017100060E008959FEF80EC089500240A94161667
:10172000170618060906089500240A9412161306CF
:10173000140605060895092E0394000C11F488235D
:1017400052F0BB0F40F4BF2B11F460FF04C06F5F79
:101750007F4F8F4F9F4F089557FD9058440F551F4F
:1017600059F05F3F71F04795880F97FB991F61F023
:101770009F3F79F087950895121613061406551F9A
:10178000F2CF4695F1DF08C0161617061806991F06
:10179000F1CF86957105610508940895E894BB27FB
:1017A00066277727CB0197F908958ADF08F48FEF32
:1017B00008950AD0C0CFB1DF28F0B6DF18F0952326
:1017C00009F0A2CFA7CFEBCFC7DFA8F39923D9F3B6
:1017D0005523C9F3950F50E0551FAA27EE27FF2781
:1017E000BB2700240894679520F4E20FF31FB41F71
:1017F0000A1E220F331F441FAA1F6695A9F777956B
:1018000030F4F30FB41F0A1E121E08F46395330F51
:10181000441FAA1F221F769599F7879520F4B40FCD
:101820000A1E121E631F440FAA1F221F331F869514
:10183000A9F7862F712D602D11249F5750408AF0F3
:10184000E1F088234AF0EE0FFF1FBB1F661F771FD2
:10185000881F91505040A9F79E3F510570F054CF1A
:101860009ECF5F3FECF3983EDCF3869577956795C6
:10187000B795F795E7959F5FC1F7FE2B880F911DF0
:101880009695879597F908950024552704C0080E6A
:10189000591F880F991F009729F076956795B8F31F
:1018A0007105B9F7802D952F089597FB072E16F433
:1018B000009406D077FD08D00BD007FC05D03EF48D
:1018C000909581959F4F0895709561957F4F0895EC
:1018D000AA1BBB1B51E107C0AA1FBB1FA617B70756
:1018E00010F0A61BB70B881F991F5A95A9F7809572
:1018F0009095BC01CD010895EE0FFF1F0590F49166
:08190000E02D0994F894FFCFDB
:061908005E00BC00770147
:00000001FF
