:1000000031C055C054C053C052C030C550C04FC09D
:100010004EC04DC04CC04BC04AC049C048C0005E35
:10002000BCE2613FDD83C29C7E20A3FD1F41009D99
:1000300023BE46DB65F88C11AF32CA57E974000065
:10004000000037000000000038000000000036000B
:100050000202020202020102040810200103000051
:100060000400C10811241FBECFE5D2E0DEBFCDBF22
:1000700010E0A0E6B0E0E8EBF6E102C005900D92DA
:10008000A636B107D9F720E0A6E6B0E001C01D9280
:10009000AA3BB207E1F710E0C2E3D0E003C021972A
:1000A000FE0102DBC133D107D1F72AD503CBA8CF9C
:1000B0003FB7F8948091750090917600A0917700F9
:1000C000B091780022B708B601FE05C02F3F19F0A5
:1000D0000196A11DB11D3FBFBA2FA92F982F8827C8
:1000E000BC01CD01620F711D811D911D42E0660FA3
:1000F000771F881F991F4A95D1F70895CF92DF92F5
:10010000EF92FF92CF93DF936B017C01D1DFEB0184
:10011000C114D104E104F10441F412C081E0C81A11
:10012000D108E108F108C851DC4FC2DF6C1B7D0B20
:10013000683E734068F3C114D104E104F10471F71F
:10014000DF91CF91FF90EF90DF90CF900895DC0189
:1001500080E0615090F09D919827E92FEF70F0E0DA
:10016000E25EFF4F2491E92FE295EF70F0E0E25D4F
:10017000FF4FE491822F8E27ECCF0895DC012C9164
:100180001196ED91FC91F8948181822B818392816B
:10019000322F30959323928387E090E00197F1F717
:1001A00081818323818383E290E00197F1F790813D
:1001B0007894EFECF0E03197F1F7922381E009F4C5
:1001C00080E00895FC0190810180F281E02D292FCB
:1001D000209560FF14C0F8948281822382838181FC
:1001E000892B8183A3E2B0E01197F1F78281982BEC
:1001F0009283789487ED90E00197F1F70895F89451
:100200008281822382838181892B8183AFEFB0E059
:100210001197F1F78281982B928378948FE090E088
:10022000EBCFDF92EF92FF920F931F93CF93DF9369
:10023000EC01D62EE42E08E010E0FF24F39461E0F8
:100240008D2D8F2109F460E0CE01BCDFFF0C015041
:100250001109A9F7E11010C0F894E981FA819181A0
:100260008881809589238183E981FA8192818881BF
:100270008095892382837894DF91CF911F910F918C
:10028000FF90EF90DF900895EF92FF920F931F93EE
:10029000CF93DF938C017B0140E065E5C2DFE7018E
:1002A00088E0E80EF11C699140E0C801BADFCE1584
:1002B000DF05C9F7DF91CF911F910F91FF90EF906C
:1002C0000895FC0190810180F281E02DF8948181F4
:1002D000292F20958223818378943DE743E050E0E5
:1002E000315029F1DA011197F1F780818923C1F3A7
:1002F000F8948281822382838181892B81837894FF
:10030000ABE7B7E01197F1F7F894818182238183FD
:10031000A3E1B1E01197F1F78081982381E009F022
:1003200080E07894E3E6F6E03197F1F7089580E015
:1003300008956F927F928F929F92AF92BF92CF92C9
:10034000DF92EF92FF920F931F93CF93DF938C0175
:10035000EB018091AC009091AD00B3DF8823D9F11F
:10036000B8018091AC009091AD008EDF40E06EEB63
:100370008091AC009091AD0054DF7E016E0189E068
:10038000C80ED11C8E01A090AC00B090AD0088E0EA
:10039000882E912C712C66246394C501EFDE8111A7
:1003A0007628660CE1E08E1A9108B9F7F80171928F
:1003B0008F01CE16DF0639F78091AC009091AD0029
:1003C00080DF813041F4F70181917F01811105C007
:1003D000E017F107C1F790E007C068E0CE01B7DE93
:1003E00091E028852813F7CF892FDF91CF911F91B6
:1003F0000F91FF90EF90DF90CF90BF90AF909F90C4
:100400008F907F906F900895CF93DF93CDB7DEB735
:1004100029970FB6F894DEBF0FBECDBFFC01208137
:10042000203191F0BE016F5F7F4F83DF882331F071
:100430008D818F33A9F020F48F31A1F080E007C0C7
:100440008F3521F08F37D1F78CE001C08BE02996F2
:100450000FB6F894DEBF0FBECDBFDF91CF910895E8
:100460008AE0F5CF89E0F3CFBF92CF92DF92EF928F
:10047000FF920F931F93CF93DF93EC01B62EC72EFD
:100480008D85811104C0CE011CDF81110EC01B8639
:100490001D861C8680E0DF91CF911F910F91FF9008
:1004A000EF90DF90CF90BF90089540E060EFCE01D5
:1004B000B8DE01E0E12CD12C11E0CE015FDEF82E98
:1004C000CE015CDE91E0F91218C0813099F511344B
:1004D000F0F2DB86D11002C081E08D878B8188230A
:1004E000B1F22396EB2DFC2DCF0108962991219393
:1004F000E817F907D9F781E0CECFEE2DF0E0F8123A
:100500000FC08B851817A0F4DE01AE0FBF1F139626
:100510008C91802379F4F12C193008F41C87D12EAA
:10052000EC0FFD1F8381902F9095892383830AC050
:100530008113F1CFFE01EE0DF11D8381802B8383AA
:10054000FF24F3946F2DCE013DDE1F5F000F11F4E9
:10055000E39401E087E08E1508F0AFCFB8CFFF92AB
:100560000F931F93CF93DF938C01F62EE091AC0095
:10057000F091AD00138615861486128611861086BA
:1005800017821682158214821382C0E0B80180910E
:10059000AC009091AD0068DFD82F882329F0FC16BD
:1005A00029F0CF5FFC1690F7D0E007C067E0C801E4
:1005B000CEDDF80197818913F4CF8D2FDF91CF9194
:1005C0001F910F91FF9008950F931F93CF93DF9387
:1005D000CDB7DEB728970FB6F894DEBF0FBECDBFFC
:1005E000E091AC00F091AD0013861586148612865A
:1005F0001186108617821682158214821382109239
:10060000AA001092AB0011E0BE016F5F7F4F809196
:10061000AC009091AD0028DF882309F451C067E059
:10062000CE01019694DD98858913EECF8091AA00C2
:100630008F5F8093AA008981883229F0D8F58031B4
:1006400011F0823209F78091AB008F5F8093AB008D
:100650008091A300811123C08091AC009091AD00E6
:1006600030DEBE016F5F7F4F8091AC009091AD0096
:100670000BDE40E064EB8091AC009091AD00D1DDE9
:100680008091AC009091AD0079DD082F8091AC0095
:100690009091AD0016DE011102C01093A300CE01AF
:1006A0000196B2DE9091A600981708F0ADCF809326
:1006B000A600AACF8B3339F2823409F0A5CFC3CF7D
:1006C00028960FB6F894DEBF0FBECDBFDF91CF9155
:1006D0001F910F91089590E0FC01EA5AFF4F249179
:1006E000FC01E05BFF4FE491EE2371F0F0E0EE0FD0
:1006F000FF1FE65BFF4FA591B491EC91E22381E0EF
:1007000090E021F480E0089580E090E0089587FF74
:1007100009C08F7771F1813071F1823071F18330CE
:1007200071F18FEF90E0FC01E45AFF4F3491FC012E
:10073000EA5AFF4F2491FC01E05BFF4FE491EE2366
:10074000B9F0332329F03130E1F48AB58F778ABDCF
:10075000F0E0EE0FFF1FEC5BFF4FA591B4918FB758
:10076000611120C0F894EC9120952E232C938FBF1B
:10077000089585E0D7CF82E0D5CF84E0D3CF83E062
:10078000D1CF323019F48AB58F7DE1CF333021F4E7
:1007900080B78F7D80BFDCCF3430D1F68CB58F7DB4
:1007A0008CBDD6CFF894EC912E2BE0CF0F931F93F6
:1007B000CF93DF93CDB7DEB729970FB6F894DEBF9E
:1007C0000FBECDBF80919B0011E0803109F466C05F
:1007D000BE016F5F7F4F8BE990E0ABDD182F882360
:1007E00009F45CC08D818F3109F458C08FE18D838D
:1007F0008091AC009091AD0064DD6BE970E0809178
:10080000AC009091AD0040DD40E06EE48091AC0022
:100810009091AD0006DD40E06B818091AC0090913D
:10082000AD00FFDC40E06C818091AC009091AD00A8
:10083000F8DC80919B00803139F040E06D8180913F
:10084000AC009091AD00EDDC0091A9008091AC006E
:100850009091AD00002309F456C033DD8823F1F0F8
:100860006BE970E08091AC009091AD000DDD40919E
:10087000A30068E48091AC009091AD00D2DC80913F
:10088000A30081112AC064E170E080E090E036DCD2
:100890008091AC009091AD0014DD102F89E0809321
:1008A000A6008091AA00823080F100E08091AA0029
:1008B000081758F58091A6008C3039F1602FCE01D1
:1008C00001964DDECE0101969FDD9091A60098170E
:1008D00010F48093A6000F5FE9CF8091A4008823D5
:1008E00021F060E08091A50012DF64E170E080E01B
:1008F00090E004DC8091A400882351F261E08091B3
:10090000A50005DFC5CFDDDCC9CF812F29960FB645
:10091000F894DEBF0FBECDBFDF91CF911F910F9135
:100920000895CF93DF9390E0FC01EA5AFF4F2491A2
:10093000805B9F4FFC0184918823D1F090E0880F69
:10094000991FFC01E25CFF4FA591B491FC01EC5BA7
:10095000FF4FC591D49161110EC09FB7F8948C914F
:10096000E22FE0958E238C932881E223E8839FBFBA
:10097000DF91CF9108958FB7F894EC91E22BEC932F
:100980008FBFF6CFCF93DF93EC0161E080E0C9DF4A
:10099000209729F460E080E0DF91CF91B8CE8AB54E
:1009A00080688ABDC9BDDF91CF9108950F931F93D1
:1009B000CF93DF938C01C0917D00D0917E00209772
:1009C000B1F480918500882379F080E890E0DADF47
:1009D000C0917D00D0917E00C530D10508F1109204
:1009E0007E0010927D0022C080E490E0F0CFC13004
:1009F000D10581F0C430D105F1F0259749F7A895CC
:100A0000F801808191818230910534F101979183C1
:100A10008083DECFFC01808191811816190684F055
:100A20002196D0937E00C0937D00A895DF91CF9151
:100A30001F910F910895FC0180819181892B81F78D
:100A400080918500882321F080E190E09BDFD5CF65
:100A500060E080E05CDED1CF8091930090919400C3
:100A600001969093940080939300B2CF1F920F92BF
:100A70000FB60F9211242F933F938F939F93AF93B1
:100A8000BF938091790090917A00A0917B00B09102
:100A90007C003091740023E0230F2D3768F126E8A5
:100AA000230F0296A11DB11D20937400809379003D
:100AB00090937A00A0937B00B0937C0080917500A6
:100AC00090917600A0917700B09178000196A11DD9
:100AD000B11D8093750090937600A0937700B0933A
:100AE0007800BF91AF919F918F913F912F910F907F
:100AF0000FBE0F901F9018950196A11DB11DD4CF68
:100B0000CF93DF93CDB7DEB729970FB6F894DEBF4A
:100B10000FBECDBF83E08ABD83BF789489B7826062
:100B200089BF80E48CBD8FEF8DBD87EC80BF87E8E7
:100B300086B90FB6F894A89581B5886181BD11BCBE
:100B40000FBEF8948FED81BD7894A89561E081E0A7
:100B5000E8DE61E080E0E5DE61E083E0E2DE61E0C6
:100B600082E0DFDE60E082E0D2DD61E083E0CFDDC5
:100B700060E081E0CCDD0AE010E064E670E080E057
:100B800090E0BCDAA89501501109B9F71DDD60E0CD
:100B90008BE990E0E4DC8BE990E036DC893009F009
:100BA00005DE80E090E0A6EEB2E48093950090939D
:100BB0009600A0939700B093980016E0E12EF12CD8
:100BC00004E0C02ED12CB5E02B2E312C812C912CA1
:100BD00054018091AC009091AD0073DB40E06CEC6F
:100BE0008091AC009091AD001CDB4091A30064E4C7
:100BF0008091AC009091AD0014DB8091A700882318
:100C000079F18091A800882309F41DC18091A30087
:100C1000811119C18FB7F8944090790050907A00F3
:100C200060907B0070907C008FBF8091AC009091B1
:100C3000AD00A4DA8130A1F02FB7F894809179004B
:100C400090917A00A0917B00B0917C002FBF841915
:100C50009509A609B7098E3E9240A105B10528F372
:100C6000BE016F5F7F4F8BE990E063DB882309F45F
:100C70007CC22A81422F50E0542F4427550F550F34
:100C8000550F8981282F30E073E0220F331F7A95AA
:100C9000E1F7242B352B80919B008031D9F46885B6
:100CA0006623C1F070E08F81AB01481B5109CA0176
:100CB0009695982F882797958795CFD4CB018097C5
:100CC000B90153E0660F771F5A95E1F760789C01F0
:100CD000260F371F213854EE35070CF446C2B901F0
:100CE000330F880B990B89D320E030E040E05CE3C0
:100CF00038D42B013C0120E030E04EEF52ECDED244
:100D0000882309F432C2A3019201C501B40172D251
:100D10004B015C018091990090919A00009709F035
:100D2000C9C18091930090919400009709F0C4C0CC
:100D30006091950070919600809197009091980035
:100D400029D38B0177FF07C000271127061B170B3C
:100D500081E08093860081E0BEDC21E0892B09F4EC
:100D600020E020938500C80164E670E076D49B0102
:100D70007093840060938300CB016CE97FEF5CD4B7
:100D8000080F191FC8016AE070E067D4FB01709377
:100D9000820060938100CB0166EF7FEF4DD4080F96
:100DA000191F1093800000937F0010927E00109214
:100DB0007D0080918600811178C0232B09F06EC0E0
:100DC000EF2B09F066C0F0929400E0929300A89592
:100DD000B1E02B1A310809F0FCCE20E030E040EA07
:100DE00050E4C501B4016ED24B015C0180928900D0
:100DF00090928A00A0928B00B0928C0020E030E0AC
:100E000046EE52E4AAD318160CF05AC161E081E014
:100E10007EDC80928D0090928E00A0928F00B09226
:100E20009000109288001092870081E054DC0197B6
:100E300009F0C9CE82E04FDC61E0892B09F060E067
:100E400082E065DCC0CEE091A600E9508EEE92E033
:100E5000E33038F4F0E0EE0FFF1FE05AFF4F8081DF
:100E600091812C01712C612C8091A400882321F0A8
:100E700060E08091A5004BDCC301B2013FD98091B5
:100E8000A400882309F4ECCE61E08091A5003FDC4A
:100E9000E7CED0929400C092930099CF82E090E088
:100EA000909394008093930092CFA1E0B0E0B09330
:100EB0009400A09393008BCF8130910509F05BC023
:100EC00080918600882351F380917D0090917E006F
:100ED0000097A1F480918500882369F080E890E074
:100EE00051DD80917D0090917E00019690937E006F
:100EF00080937D006CCF80E490E0F2CF8830910544
:100F0000B9F480918500882379F080E190E03ADDA2
:100F100080917D0090917E008B30910530F310928E
:100F20007E0010927D0053CF60E080E0F0DBF0CFD8
:100F30000B9771F7A8958091830090918400892B7D
:100F400081F48091810090918200892B29F4F092A4
:100F50009400E0929300DCCFD0929400C092930072
:100F6000D7CF809193009091940001969093940034
:100F700080939300CDCF8230910581F480918300DE
:100F8000909184001816190624F483E890E00EDD91
:100F90001ECFD0929400C0929300C1CF83309105B0
:100FA00081F480917D0090917E00009761F5A89575
:100FB00080917D0090917E008730910508F0AFCF41
:100FC00094CF84309105B1F4809183009091840096
:100FD000181619063CF08091810090918200181635
:100FE00019061CF481E890E0D2CFF0929400E092D0
:100FF000930095CF85309105A1F28630910581F45B
:101000008FE790E0C4CF079799F6A8958091930059
:101010009091940001969093940080939300C8CF90
:10102000079709F0D4CE80917D0090917E000097C3
:1010300051F4A89580917D0090917E0087309105B4
:1010400008F453CFC4CE0797A9F7A89542E350E020
:1010500050939A004093990010929400109293003C
:101060008091910090919200892B89F080918D0060
:1010700090918E00A0918F00B09190008093950088
:1010800090939600A0939700B0939800A0CE80E034
:1010900090E0ACE8B2E48093950090939600A09322
:1010A0009700B0939800A1E0B0E0B0939200A093B5
:1010B00091008DCE019790939A008093990087CEEE
:1010C00020E030E04CE852E4C501B401F7D087FFDE
:1010D000A0CE60E09CCE019690938800809387001C
:1010E00060E083E014DB04E610E081E0F4DA0197CD
:1010F000C1F5C80165E070E09FD28A5F910942DCCA
:1011000064E670E080E090E0F9D7A89505501109F9
:101110000233110551F761E083E0F9DA10E000E0F5
:1011200081E0D9DA0197F9F4C80165E070E084D272
:1011300029DC64E670E080E090E0E0D7A8950B5FE2
:101140001F4F0233110561F73FDA60E08BE990E051
:1011500006DA8BE990E058D9893009F466CE26DBAF
:1011600064CEC801CCCFC801E3CF809187009091B5
:101170008800853091050CF4AECF61E081E0C7DADC
:10118000AFCF60E084E0CDDBE6E6F0E080E1808395
:1011900086E390E0928381831386158614861286F7
:1011A0001186108617821682158214821382A3EA92
:1011B000B0E056961C921E92559711961C9211976C
:1011C0001A96FC93EE93199717961C9217971896F8
:1011D0001C9218971C9289E013968C93139781E0C8
:1011E00014968C93149715968C93159716968C934A
:1011F00008955058BB27AA270ED075C166D130F08C
:101200006BD120F031F49F3F11F41EF45BC10EF45A
:10121000E095E7FB51C1E92F77D180F3BA17620758
:1012200073078407950718F071F49EF58FC10EF4CB
:10123000E0950B2EBA2FA02D0B01B90190010C01E6
:10124000CA01A0011124FF27591B99F0593F50F4FE
:10125000503E68F11A16F040A22F232F342F442756
:10126000585FF3CF469537952795A795F04053954E
:10127000C9F77EF41F16BA0B620B730B840BBAF01E
:101280009150A1F0FF0FBB1F661F771F881FC2F789
:101290000EC0BA0F621F731F841F48F4879577959D
:1012A0006795B795F7959E3F08F0B3CF9395880F54
:1012B00008F09927EE0F979587950895D9D008F4EF
:1012C00081E008950CD00FC107D140F0FED030F07E
:1012D00021F45F3F19F0F0C0511139C1F3C014D1AE
:1012E00098F39923C9F35523B1F3951B550BBB27ED
:1012F000AA2762177307840738F09F5F5F4F220F9A
:10130000331F441FAA1FA9F333D00E2E3AF0E0E892
:1013100030D091505040E695001CCAF729D0FE2FDE
:1013200027D0660F771F881FBB1F26173707480770
:10133000AB07B0E809F0BB0B802DBF01FF27935826
:101340005F4F2AF09E3F510568F0B6C000C15F3F75
:10135000ECF3983EDCF3869577956795B795F7950E
:101360009F5FC9F7880F911D9695879597F9089506
:10137000E1E0660F771F881FBB1F621773078407A2
:10138000BA0720F0621B730B840BBA0BEE1F88F7B1
:10139000E095089504D06894B111D9C00895BCD0E7
:1013A00088F09F5790F0B92F9927B751A0F0D1F04E
:1013B000660F771F881F991F1AF0BA95C9F712C0D8
:1013C000B13081F0C3D0B1E00895C0C0672F782F4D
:1013D0008827B85F39F0B93FCCF386957795679544
:1013E000B395D9F73EF490958095709561957F4FB0
:1013F0008F4F9F4F0895E89409C097FB3EF4909556
:101400008095709561957F4F8F4F9F4F9923A9F0DD
:10141000F92F96E9BB279395F6958795779567956C
:10142000B795F111F8CFFAF4BB0F11F460FF1BC0B0
:101430006F5F7F4F8F4F9F4F16C0882311F096E943
:1014400011C0772321F09EE8872F762F05C06623F1
:1014500071F096E8862F70E060E02AF09A95660FAA
:10146000771F881FDAF7880F9695879597F9089563
:10147000990F0008550FAA0BE0E8FEEF16161706A5
:10148000E807F907C0F012161306E407F50798F00D
:10149000621B730B840B950B39F40A2661F0232B26
:1014A000242B252B21F408950A2609F4A140A695A2
:1014B0008FEF811D811D089597F99F6780E870E087
:1014C00060E008959FEF80EC089500240A941616BA
:1014D000170618060906089500240A941216130622
:1014E000140605060895092E0394000C11F48823B0
:1014F00052F0BB0F40F4BF2B11F460FF04C06F5FCC
:101500007F4F8F4F9F4F089557FD9058440F551FA1
:1015100059F05F3F71F04795880F97FB991F61F075
:101520009F3F79F087950895121613061406551FEC
:10153000F2CF4695F1DF08C0161617061806991F58
:10154000F1CF86957105610508940895E894BB274D
:1015500066277727CB0197F908958ADF08F48FEF84
:1015600008950AD0C0CFB1DF28F0B6DF18F0952378
:1015700009F0A2CFA7CFEBCFC7DFA8F39923D9F308
:101580005523C9F3950F50E0551FAA27EE27FF27D3
:10159000BB2700240894679520F4E20FF31FB41FC3
:1015A0000A1E220F331F441FAA1F6695A9F77795BD
:1015B00030F4F30FB41F0A1E121E08F46395330FA4
:1015C000441FAA1F221F769599F7879520F4B40F20
:1015D0000A1E121E631F440FAA1F221F331F869567
:1015E000A9F7862F712D602D11249F5750408AF046
:1015F000E1F088234AF0EE0FFF1FBB1F661F771F25
:10160000881F91505040A9F79E3F510570F054CF6C
:101610009ECF5F3FECF3983EDCF386957795679518
:10162000B795F795E7959F5FC1F7FE2B880F911D42
:101630009695879597F908950024552704C0080EBC
:10164000591F880F991F009729F076956795B8F371
:101650007105B9F7802D952F089597FB072E16F485
:10166000009406D077FD08D00BD007FC05D03EF4DF
:10167000909581959F4F0895709561957F4F08953E
:10168000AA1BBB1B51E107C0AA1FBB1FA617B707A8
:1016900010F0A61BB70B881F991F5A95A9F78095C4
:1016A0009095BC01CD010895EE0FFF1F0590F491B8
:0816B000E02D0994F894FFCF2E
:0616B8005E00BC0077019A
:00000001FF
